S01200004C41475F61746D6567612E7372656370
S11300000C942A000C943C000C943C000C943C008E
S11300100C9466000C943C000C943C000C943C0042
S11300200C943C000C943E000C943C000C943C005A
S11300300C943C000C943C000C943C000C943C004C
S11300400C943C000C943C000C943C000C943C003C
S11300500C943C0011241FBECFE5D4E0DEBFCDBF1D
S113006020E0A0E6B0E001C01D92A636B207E1F799
S11300700E9498000C94DC000C948E001F920F9246
S11300800FB60F9211248F939F93809163009091E8
S11300906400892BA1F09BB382E089278BBB8091FC
S11300A063009091640001979093640080936300CF
S11300B0892B09F4DC9A80916500809582BF9F9119
S11300C08F910F900FBE0F901F9018951F920F9253
S11300D00FB60F9211248F939F938091610090919A
S11300E06200892BA1F09BB388E089278BBB8091A8
S11300F06100909162000197909362008093610087
S1130100892B09F4DD9A80916000809584BD9F91CC
S11301108F910F900FBE0F901F9018951F920F9202
S11301200FB60F9211240F900FBE0F901F901895C9
S1130130CFEFCABB1BBA0E94BD000E94C5000E943B
S1130140CD00C0936500C0936000789404E610E08D
S1130150C8ECD0E00E94D80080936500DC9810932E
S11301606400009363000E94D80080936000DD98CF
S1130170D0936200C0936100EDCF12BE83B7836059
S113018083BF89B7816089BF089514BC85B5836036
S113019085BD89B7806489BF08958AB188698AB9A1
S11301A010BC8CE089B982E08BB986E880BD0895E3
S10F01B05F9BFECF8CB10895F894FFCF44
S9030000FC
