:100000000C942A000C943C000C943C000C943C0092
:100010000C9492000C943C000C943C000C943C001A
:100020000C943C000C9455000C943C000C943C0047
:100030000C943C000C943C000C943C000C943C0050
:100040000C943C000C943C000C943C000C943C0040
:100050000C943C0011241FBECFE5D4E0DEBFCDBF21
:1000600020E0A0E6B0E001C01D92A636B207E1F79D
:100070000E94DD000C9441010C943E001F920F92EF
:100080000FB60F9211240F900FBE0F901F9018956E
:100090009BB3892B8BBB08959BB3809598239BBB07
:1000A00008959BB389278BBB08951F920F920FB6BB
:1000B0000F9211242F933F934F935F936F937F93EE
:1000C0008F939F93AF93BF93EF93FF9380916300C0
:1000D00090916400892BA9F082E00E9451008091E8
:1000E0006300909164000197909364008093630093
:1000F000892B19F480E10E94480080916500809569
:1001000082BFFF91EF91BF91AF919F918F917F91AE
:100110006F915F914F913F912F910F900FBE0F9074
:100120001F9018951F920F920FB60F9211242F93C4
:100130003F934F935F936F937F938F939F93AF936F
:10014000BF93EF93FF938091610090916200892BA0
:10015000A9F088E00E9451008091610090916200B6
:1001600001979093620080936100892B19F480E2DB
:100170000E94480080916000809584BDFF91EF91BE
:10018000BF91AF919F918F917F916F915F914F91AF
:100190003F912F910F900FBE0F901F90189580E107
:1001A0000E944C0080E20E944C00089580E10E9471
:1001B000480080E20E9448000895CFEFCABB1BBAF6
:1001C0000E94D6000E9422010E942A010E94320150
:1001D000C0936500C093600078940E943D018093B5
:1001E00065000E943D01809360000E94CF008091D5
:1001F0006500882314F4D89A01C0D89880916500CE
:100200008F7790E0880F991F880F991F880F991F8B
:10021000909364008093630080916000882314F4BD
:10022000DA9A01C0DA98809160008F7790E0880FA9
:10023000991F880F991F880F991F909362008093D0
:100240006100CBCF12BE83B7836083BF89B7816063
:1002500089BF089514BC85B5836085BD89B7806466
:1002600089BF08958AB188698AB910BC8CE089B9C0
:1002700082E08BB986E880BD08955F9BFECF8CB18C
:060280000895F894FFCF81
:00000001FF
